:100000000C9434000C9451000C9451000C94510049
:100010000C9451000C9451000C9451000C9451001C
:100020000C9451000C9451000C9451000C9451000C
:100030000C9451000C9451000C9451000C945100FC
:100040000C9451000C9451000C9451000C945100EC
:100050000C9451000C9451000C9451000C945100DC
:100060000C9451000C94510011241FBECFEFD4E02A
:10007000DEBFCDBF11E0A0E0B1E0E6E7FEE002C0E8
:1000800005900D92AE30B107D9F721E0AEE0B1E0B6
:1000900001C01D92A336B207E1F70E9488030C94B9
:1000A00039070C94000088B1876088B9589A089580
:1000B00089B186FB882780F98093310190910901ED
:1000C0008917E9F18093090110921501109214012A
:1000D000882321F087E70E94AE0403C087E70E94CF
:1000E0009C048091330181112AC0809143018F5F6C
:1000F000809343018430F9F48FE98093460189EAC3
:100100008093470183EB809348018EEB80934901F4
:1001100089EC80934A0185ED80934B0181EE8093B9
:100120004C018FEE80934D0110924E0110924501CB
:1001300010925A0104C08B3010F00E94080689B159
:10014000881F8827881F8093400190910801891794
:1001500001F1809308011092150110921401882377
:1001600031F0109213018FE50E949C0412C08FE5BC
:100170000E94AE0480913001882359F080911601CD
:1001800090911701853B910520F010921701109274
:10019000160189B185FB882780F98093330181118D
:1001A00003C091E090931301909107018917B9F072
:1001B000809307011092150110921401882361F0B9
:1001C00087E70E94AE0410924301809112018130B2
:1001D00031F41092120103C080E50E94AE0483B195
:1001E00081708093420190910601891759F08093A4
:1001F0000601882321F08FEE0E94AE0403C08FEE2B
:100200000E949C0483B18695817080933501909102
:100210000501891759F080930501882321F085EDA8
:100220000E94AE0403C085ED0E949C0483B182FB52
:10023000882780F98093320190910401891759F041
:1002400080930401882321F08EEB0E94AE0403C04A
:100250008EEB0E949C0483B183FB882780F98093F6
:10026000340190910301891759F080930301882389
:1002700021F083EB0E94AE0403C083EB0E949C0438
:1002800083B182958170809330019091020189172A
:1002900059F080930201882321F08FE90E94AE0477
:1002A00003C08FE90E949C0483B185FB882780F9F5
:1002B00080933F01909101018917F1F08093010132
:1002C000882321F081E08093440108951092440135
:1002D00080915A01882381F087E7809346018CE35F
:1002E0008093470185E3809348018FE28093490121
:1002F00010924A01109245010895CF93DF93CDB734
:10030000DEB72C970FB6F894DEBF0FBECDBF86E3E5
:1003100091E00E94D1052091360130913701609122
:1003200038017091390180913A0190913B014091DF
:100330003C0150913D01E0911201E23040F0E33088
:1003400009F05AC0E0913101EE2309F455C0EFEFF6
:10035000F3E0DF01A61BB70BBD01E41BF50B4091D9
:1003600030014423F9F040914001442339F0409199
:100370001301442331F042EA50E005C042EA50E064
:1003800002C04EE553E05A8349837C836B833E83EE
:100390002D83F887EF8320E032E03A8729879C8716
:1003A0008B871EC03A832983BC83AB839E838D8356
:1003B000F887EF8380914001882319F082EA90E06A
:1003C00002C08EE593E09A87898780913101882366
:1003D00019F082EA90E002C08EE593E09C878B875B
:1003E00041E080914301843008F440E060911201C3
:1003F000CE0101960E94DA0480910001882369F001
:1004000080911B01853618F01092000113C0909165
:100410003E01890F80931B010DC090911B018091BB
:100420003E01981720F481E08093000103C0981BDF
:1004300090931B01809112018130D9F480911101B8
:10044000882359F080911A01853618F01092110115
:1004500028C0865F80931A0124C080911A018A30D7
:1004600020F481E0809311011CC08A5080931A010E
:1004700018C080914301843058F081E080931101CD
:1004800080911A018F3B68F4865F80931A0109C03E
:100490001092110180911A018A3018F08A508093CD
:1004A0001A0180914101882351F01092100180912E
:1004B00019018A3088F18A50809319012DC08091EA
:1004C00012018330F9F48091310181111BC08091B8
:1004D0001001882359F080911901853618F0109287
:1004E00010011AC0865F8093190116C0809119010E
:1004F0008A3020F481E0809310010EC08A508093EE
:1005000019010AC081E080931001809119018F3B8D
:1005100018F4865F8093190180911301811115C031
:1005200080914001811109C010C0865F809318013D
:1005300012C08A50809318010EC081E080930F0191
:10054000809118018F3B88F306C010920F018091B3
:1005500018018A3070F72C960FB6F894DEBF0FBEE4
:10056000CDBFDF91CF91089586E480937C00EAE7C8
:10057000F0E0808180648083808186FDFDCF809162
:10058000780090917900969587959695879587390B
:1005900020F081E080933E013AC08A3820F082E06A
:1005A00080933E0134C0893720F084E080933E017F
:1005B0002EC088E180933E01E0914501F0E0EA5BC6
:1005C000FE4F8081811123C081E08093460180939A
:1005D0004701809348018093490180934A018093A9
:1005E0004B0180934C0180934D0180934E019FEE0F
:1005F00090934F019093500191EE909351019093FD
:100600005201109253011092450180935A0189B111
:10061000829581708093410190910E01891789F133
:1006200080930E018823C1F080915A01882361F0E4
:1006300087E7809346019CE39093470180934801AC
:10064000109249011092450180911201825082302E
:10065000C0F41092120115C087E780934601809381
:1006600047018CE3809348011092490110924501A3
:1006700010925A0180911201811103C083E080938E
:10068000120180914301843020F480911201813065
:1006900021F5E0914501F0E0EA5BFE4F8081811198
:1006A00024C081E0809346018093470180934801F4
:1006B0008093490180934A0180934B0180934C01C0
:1006C00080934D0180934E019FEE90934F011092C5
:1006D00050011092450180935A01E0914501F0E0EC
:1006E000EA5BFE4F8081882369F0813019F40E9413
:1006F000980402C00E94BC04809145018F5F8093E2
:10070000450108950E94980481E080935A0108955C
:1007100014B887E087B98BE08AB980EE8BB98FE394
:1007200085B90E9453008FE480937C0080E8809319
:100730007A0088E380937E0014BC83E085BDF89442
:100740000E9472060E94CE0499B192959170909386
:10075000410189B185FB882780F98093330110928C
:100760001201911103C093E090931201811103C013
:1007700081E08093120183E08093B1000E9498048D
:1007800080E5809346018BE48093470110924801F5
:100790001092450110925A010F2EF8E3CF2EF1E08E
:1007A000DF2EF02D0F2EFAE3EF2EF1E0FF2EF02DCD
:1007B0000CE311E0CAEFD0E00F2EFBEABF2EF02DC4
:1007C0003CC086B58A3F78F426B530E080911B01A5
:1007D0008B9D812D11248695AE01481B510924174C
:1007E00035070CF0429886B58A3F58F426B530E0BC
:1007F00080911A01FE01E81BF1092E173F070CF04A
:10080000409886B58A3F58F426B530E080911901AA
:10081000AE01481B5109241735070CF0419886B5E5
:100820008A3F58F426B530E080911801FE01E81B9C
:10083000F1092E173F070CF0589886B58A3F08F249
:1008400016BC0E9453000E94580086E391E00E946B
:100850005F0580910D018F5F8B3018F480930D013F
:100860001DC010920D010E947D011092370110925F
:100870003601F60111821082F70111821082F8010F
:100880001182108280910C018F5F863018F4809362
:100890000C0104C010920C010E94B40280910A0164
:1008A00090910B010196843FF1E09F0728F490930B
:1008B0000B0180930A01C1CF10920B0110920A0123
:1008C00080911401909115010196909315018093E8
:1008D000140180914001882309F4AFCF8091300149
:1008E000882309F4AACF80911601909117010196EF
:1008F0009093170180931601843B910519F480E2CF
:100900000E94AE0480911601909117018E3B9105D3
:1009100019F48CE30E949C048091140190911501BC
:100920008836914008F489CF8CE30E949C0485CFDF
:100930001092B0005B98089590915A01992369F044
:100940008093460191E09093470180934801109273
:1009500049011092450190935A01089590915A01CE
:10096000992349F080934601109247011092450166
:1009700081E080935A0108959091440191110DC036
:1009800092E19093B0009091B300981731F080936A
:10099000B3008093B4001092B200089583E0809376
:1009A000C4001092C50086E08093C20088E0809366
:1009B000C1000895CF93DF93662351F188E98093B6
:1009C0001E0110921F01109220011092210185E05A
:1009D000809322018FEF8093230199E0909324016B
:1009E000809325019DE0909326018093270180E16B
:1009F000809328018AEA8093290194E190932A0147
:100A000080932B0110921D018EE080931C0124C065
:100A1000411104C028E120931E0103C028E3209364
:100A20001E0110921F01A82FB92FE1E2F1E08DE223
:100A300091E02C9111963C9111971296EF0121971C
:100A40003370388320833296E817F90791F71092B4
:100A50001D018EE080931C01A0911D0180911C015D
:100A6000A817B0F4E0ECF0E0C6ECD0E0808185FFA0
:100A7000FDCF81E08A0F80931D01B0E0A25EBE4FE2
:100A80008C918883A0911D0180911C01A81770F39F
:100A9000DF91CF910895806480937C0085E38A95EF
:100AA000F1F70000EAE7F0E08081806480838081D4
:100AB00086FDFDCF809178009091790008950F9385
:100AC0001F93CF93DF93EC010881198187E00E9487
:100AD0004B05800F911F998388830E811F8183E0CE
:100AE0000E944B05800F911F9F838E830C811D8177
:100AF00084E00E944B05800F911F9D838C830A81A7
:100B00001B8185E00E944B05800F911F9B838A8388
:100B1000DF91CF911F910F910895CF93DF93CDB7C0
:100B2000DEB728970FB6F894DEBF0FBECDBFAA2759
:100B300097FDA095BA2F89839A83AB83BC832981C3
:100B40003A814B815C81AEE0B6E00E94B7066D83CE
:100B50007E838F8398876D817E818F81988528EE33
:100B600033E040E050E00E94980629833A834B83AB
:100B70005C8389819A81AB81BC8128960FB6F894F9
:100B8000DEBF0FBECDBFDF91CF910895811524E068
:100B9000920714F08FEF93E0992314F480E090E033
:100BA0000895CF92DF92EF92FF920F931F93CF930E
:100BB000DF930BE511E0EC010F2EF3E6CF2EF1E011
:100BC000DF2EF02D0F2EFBE0EF2EF12CF02D888183
:100BD0009981B7010E948406CB010E948D059E5F1A
:100BE00099838883F801219131918F01821B930BA6
:100BF0000E94C605899399930C151D0541F7DF9155
:100C0000CF911F910F91FF90EF90DF90CF900895BB
:100C1000EF92FF920F931F93CF93DF930E9498045C
:100C20000E94530080E0329A2FEF32E597E0215086
:100C300030409040E1F700C00000833011F440984C
:100C400009C0863019F441988F5FEDCF893011F4D7
:100C5000589803C08F5F8A3031F70E94530010927A
:100C60005C0110925B0110925E0110925D01109286
:100C7000600110925F011092620110926101CBE05D
:100C80008FE99FE00197F1F700C000008BE591E04C
:100C90000E945F05C150A1F7CBE5D1E00F2EF3E62E
:100CA000EF2EF1E0FF2EF02D0BE010E0888199810E
:100CB000B8010E948406CB010E948D058993999307
:100CC000CE15DF0599F748E050E060E070E08BE575
:100CD00091E00E941707DF91CF911F910F91FF9034
:100CE000EF90089548E050E060E070E08BE591E01F
:100CF0000E94070780915B0190915C010196029729
:100D000010F40E940806089597FB072E16F400942D
:100D100007D077FD09D00E94C20607FC05D03EF43B
:100D2000909581959F4F0895709561957F4F089597
:100D3000052E97FB1EF400940E94AF0657FD07D0C6
:100D40000E94D60607FC03D04EF40C94AF065095D3
:100D50004095309521953F4F4F4F5F4F08959095A7
:100D60008095709561957F4F8F4F9F4F08950E949A
:100D7000F806A59F900DB49F900DA49F800D911D26
:100D800011240895AA1BBB1B51E107C0AA1FBB1F5A
:100D9000A617B70710F0A61BB70B881F991F5A9507
:100DA000A9F780959095BC01CD010895A1E21A2E76
:100DB000AA1BBB1BFD010DC0AA1FBB1FEE1FFF1FFF
:100DC000A217B307E407F50720F0A21BB30BE40B4F
:100DD000F50B661F771F881F991F1A9469F7609596
:100DE0007095809590959B01AC01BD01CF01089550
:100DF000A29FB001B39FC001A39F700D811D11245C
:100E0000911DB29F700D811D1124911D0895DC016B
:100E1000CB01FC01F999FECF06C0F2BDE1BDF89A05
:100E2000319600B40D9241505040B8F70895DC015E
:100E3000A40FB51F4150504048F0CB01840F951FBF
:100E40002E910E94280741505040D0F70895262F38
:100E5000F999FECF92BD81BDF89A019700B40216B0
:100E600039F01FBA20BD0FB6F894FA9AF99A0FBE5E
:060E70000895F894FFCF85
:0E0E760001030303030303030303FFFFFFFF56
:00000001FF
