:100000000C9434000C9451000C9451000C94510049
:100010000C9451000C9451000C9451000C9451001C
:100020000C9451000C9451000C9451000C9451000C
:100030000C9451000C9451000C9451000C945100FC
:100040000C9451000C9451000C9451000C945100EC
:100050000C9451000C9451000C9451000C945100DC
:100060000C9451000C94510011241FBECFEFD4E02A
:10007000DEBFCDBF11E0A0E0B1E0E2E1FCE102C0F3
:1000800005900D92AE30B107D9F711E0AEE0B1E0C6
:1000900001C01D92A336B107E1F70E9493030C94AF
:1000A000070E0C94000088B1876088B9589A0895AB
:1000B00086E480937C0080917A00806480937A004B
:1000C00080917A0086FDFCCF809178009091790034
:1000D0009695879596958795873910F081E003C0AE
:1000E0008A3820F082E080933E0132C0893710F0D8
:1000F00084E0F9CF88E180933E01E0914501F0E092
:10010000EA5BFE4F8081882319F581E080934601E8
:1001100080934701809348018093490180934A016D
:1001200080934B0180934C0180934D0180934E014D
:100130009FEE90934F019093500191EE9093510157
:1001400090935201109253011092450180935A01ED
:1001500099B19295917090934101809118019817EF
:1001600089F1909318019923C1F080915A01882355
:1001700061F097E7909346018CE380934701909359
:100180004801109249011092450180911701825057
:100190008230C0F41092170115C087E780934601A2
:1001A000809347018CE3809348011092490110929B
:1001B000450110925A0180911701882319F483E0B8
:1001C0008093170180914301843020F480911701BE
:1001D000813021F5E0914501F0E0EA5BFE4F80813E
:1001E0008823E1F481E08093460180934701809366
:1001F00048018093490180934A0180934B01809389
:100200004C0180934D0180934E019FEE90934F01DE
:10021000109250011092450180935A01E0914501DE
:10022000F0E0EA5BFE4F8081882369F0813019F4A9
:100230000E94960402C00E94BC04809145018F5F19
:100240008093450108950E94960481E080935A01AD
:1002500008951F93DF93CF93CDB7DEB72C970FB6DA
:10026000F894DEBF0FBECDBF86E391E00E94A60CDE
:10027000809132012091360130913701882329F095
:100280006FEF73E0621B730B01C0B9018091350100
:10029000882349F0AFEFB3E08091380190913901A4
:1002A000A81BB90B04C0A0913801B091390180910D
:1002B0004201882349F04FEF53E080913A01909139
:1002C0003B01481B590B04C040913A0150913B013E
:1002D00080913401882349F02FEF33E080913C0175
:1002E00090913D01281B390B04C020913C013091B5
:1002F0003D0110911701123040F0133009F04CC04D
:1003000080913101882309F447C080913001909198
:1003100040018823D1F0992339F080911601882378
:1003200019F48EE593E002C082EA90E09A83898313
:10033000BC83AB837E836D8338872F8380E092E01C
:100340009A8789875C874B871CC0992319F4EEE54F
:10035000F3E002C0E2EAF0E080913101882319F471
:100360008EE593E002C082EA90E07A836983BC83E1
:10037000AB835E834D8338872F83FA87E9879C8719
:100380008B8740E080914301843008F041E0CE014A
:100390000196612F0E94B80B8091000190910E018F
:1003A000882359F0953618F01092000111C0809101
:1003B0003E01890F80930E010BC080913E0198177A
:1003C00020F481E08093000103C0981B90930E01FC
:1003D00020911701213081F480911B0190910F0130
:1003E000882329F0953698F010921B0119C09A3095
:1003F000A0F420931B0114C08091430190910F0140
:10040000843038F081E080931B019F3B48F4965F75
:1004100005C010921B019A3018F09A5090930F016A
:1004200080914101882341F010921A0180911001BE
:100430008A3048F18A5025C02330D9F480913101A7
:100440008823B9F480911A0190911001882339F022
:10045000953618F010921A0116C0965F07C09A30B0
:1004600020F481E080931A010EC09A5090931001FD
:100470000AC081E080931A01809110018F3B18F42B
:10048000865F8093100180911601882319F080E027
:1004900090E009C090E080914001882309F491E048
:1004A00081E09827892F80931901209111018823D9
:1004B00021F02F3B38F4265F03C02A3018F02A5071
:1004C000209311012C960FB6F894DEBF0FBECDBF5E
:1004D000CF91DF911F91089599B192959695969538
:1004E000917090933101809109019817E9F19093EF
:1004F00009011092150110921401992321F087E748
:100500000E94AD0403C087E70E949A0480913301E2
:10051000882351F5809143018F5F8093430184309C
:10052000F9F48FE98093460189EA8093470183EBD0
:10053000809348018EEB8093490189EC80934A01B6
:1005400085ED80934B0181EE80934C018FEE80937B
:100550004D0110924E011092450110925A0104C0B3
:100560008B3010F00E94D80C99B1991F9927991FD0
:100570009093400180910801981701F19093080130
:100580001092150110921401992331F01092160166
:100590008FE50E949A0412C08FE50E94AD048091FD
:1005A0003001882359F08091120190911301853B0D
:1005B000910520F0109213011092120199B19295B9
:1005C0009695917090933301992319F481E080936B
:1005D0001601809107019817B9F0909307011092C6
:1005E000150110921401992361F087E70E94AD0470
:1005F0001092430180911701813031F4109217015C
:1006000003C080E50E94AD0493B1917090934201C4
:1006100080910601981759F090930601992321F0D3
:100620008FEE0E94AD0403C08FEE0E949A0493B136
:10063000969591709093350180910501981759F026
:1006400090930501992321F085ED0E94AD0403C02C
:1006500085ED0E949A0493B196959695917090932A
:10066000320180910401981759F090930401992365
:1006700021F08EEB0E94AD0403C08EEB0E949A0421
:1006800093B196959695969591709093340180913B
:100690000301981759F090930301992321F083EBFC
:1006A0000E94AD0403C083EB0E949A0493B192951B
:1006B00091709093300180910201981759F09093B6
:1006C0000201992321F08FE90E94AD0403C08FE954
:1006D0000E949A0493B192959695917090933F01E0
:1006E000809101019817F1F090930101992321F075
:1006F00081E08093440108951092440180915A0151
:10070000882381F087E7809346018CE3809347013B
:1007100085E3809348018FE28093490110924A015A
:10072000109245010895CF93DF9314B887E087B9FD
:100730008BE08AB980EE8BB98FE385B988B1876089
:1007400088B9589A8FE480937C0080E880937A007F
:1007500088E380937E0014BC83E085BDF8940E94FA
:10076000340D0E94AC0B89B1829581708093410158
:1007700099B19295969591709093330110921701CB
:10078000882319F483E080931701992319F481E0F9
:100790008093170183E08093B1000E94960480E566
:1007A000809346018BE48093470110924801109298
:1007B000450110925A01CAEFD0E03BC086B58A3F8E
:1007C00070F426B530E080910E0163E00E94650D63
:1007D000AE01481B5109241735070CF0429886B525
:1007E0008A3F58F486B590E020910F01AE01421B7C
:1007F0005109841795070CF0409886B58A3F58F444
:1008000086B590E020911001AE01421B510984177A
:1008100095070CF0419886B58A3F58F486B590E06C
:1008200020911101AE01421B5109841795070CF06C
:10083000589886B58A3F10F216BC88B1876088B98F
:10084000589A0E946C0286E391E00E94280C8091E5
:100850000D018F5F80930D018B30F8F010920D0128
:100860000E9429011092370110923601109239012D
:100870001092380110923B0110923A0110923D0102
:1008800010923C0180910C018F5F80930C018630A7
:1008900020F010920C010E94580080910A01909162
:1008A0000B01019690930B0180930A01845F9140A4
:1008B00008F4BFCF10920B0110920A01809114012D
:1008C00090911501019690931501809314018091E8
:1008D0004001882309F4ADCF80913001882309F4C9
:1008E000A8CF80911201909113010196909313016A
:1008F00080931201843B910519F480E20E94AD04BB
:1009000080911201909113018E3B910519F48CE3B3
:100910000E949A048091140190911501885691408B
:1009200008F487CF8CE30E949A0483CF1092B00022
:100930005B980895982F80915A01882369F09093CD
:10094000460181E08093470190934801109249014C
:100950001092450180935A010895982F80915A0171
:10096000882349F090934601109247011092450167
:1009700081E080935A010895982F80914401882343
:1009800069F482E18093B0008091B300891731F05F
:100990009093B3009093B4001092B20008950F9317
:1009A0001F93CF93DF931092B0005B9880E391E1A7
:1009B00028EC30E0F9013197F1F70197D9F786E893
:1009C0000E94BC0488E991E228EC30E0F9013197FB
:1009D000F1F70197D9F71092B0005B9880E49CE999
:1009E0000197F1F786E80E94BC048CEE94E028ECB5
:1009F00030E0F9013197F1F70197D9F71092B00083
:100A00005B9880E49CE90197F1F786E80E94BC04BA
:100A10008CEE94E028EC30E0F9013197F1F7019782
:100A2000D9F71092B0005B9880E49CE90197F1F748
:100A300086E80E94BC048CEE94E028EC30E0F901DA
:100A40003197F1F70197D9F71092B0005B9880E4E5
:100A50009CE90197F1F786E80E94BC0484EE9CE0D3
:100A600028EC30E0F9013197F1F70197D9F786E9E1
:100A70000E94BC048CE494E028EC30E0F90131974A
:100A8000F1F70197D9F786E80E94BC0480E391E171
:100A900028EC30E0F9013197F1F70197D9F710927E
:100AA000B0005B9888E998E028EC30E0F9013197D4
:100AB000F1F70197D9F786E80E94BC048CEE94E028
:100AC00028EC30E0F9013197F1F70197D9F710924E
:100AD000B0005B9880E49CE90197F1F786E80E94FA
:100AE000BC048CEE94E028EC30E0F9013197F1F78A
:100AF0000197D9F71092B0005B9880E49CE90197C8
:100B0000F1F786E80E94BC048CEE94E028EC30E01B
:100B1000F9013197F1F70197D9F71092B0005B987E
:100B200080E49CE90197F1F786E80E94BC0484EE1A
:100B30009CE028EC30E0F9013197F1F70197D9F703
:100B400086E90E94BC048CE494E028EC30E0F901D2
:100B50003197F1F70197D9F786E80E94BC0480E34A
:100B600091E128EC30E0F9013197F1F70197D9F7DD
:100B70001092B0005B9888E998E028EC30E0F90129
:100B80003197F1F70197D9F786E80E94BC048CEE03
:100B900094E028EC30E0F9013197F1F70197D9F7AB
:100BA0001092B0005B9880E49CE90197F1F786E829
:100BB0000E94BC048CEE94E028EC30E0F9013197FF
:100BC000F1F70197D9F71092B0005B9880E49CE9A7
:100BD0000197F1F786E80E94BC048CEE94E028ECC3
:100BE00030E0F9013197F1F70197D9F71092B00091
:100BF0005B9880E49CE90197F1F786E80E94BC04C9
:100C000088E998E028EC30E0F9013197F1F7019795
:100C1000D9F783EB0E94BC0484E893E028EC30E031
:100C2000F9013197F1F70197D9F71092B0005B986D
:100C300080E49CE90197F1F783EB0E94BC0484E80F
:100C400093E028EC30E0F9013197F1F70197D9F7FB
:100C50001092B0005B9880E49CE90197F1F783EB78
:100C60000E94BC0480ED97E028EC30E0F901319758
:100C7000F1F70197D9F71092B0005B9880E49CE9F6
:100C80000197F1F783EB0E94BC0480ED97E028EC1C
:100C900030E0F9013197F1F70197D9F71092B000E0
:100CA0005B9880E49CE90197F1F783EB0E94BC0418
:100CB00080ED97E028EC30E0F9013197F1F70197EA
:100CC000D9F71092B0005B9880E49CE90197F1F7A6
:100CD00083EB0E94BC0480ED97E028EC30E0F90142
:100CE0003197F1F70197D9F71092B0005B9880E443
:100CF0009CE90197F1F783EB0E94BC0480ED97E03B
:100D000028EC30E0F9013197F1F70197D9F710920B
:100D1000B0005B9880E49CE90197F1F783EB0E94B7
:100D2000BC0480ED97E028EC30E0F9013197F1F751
:100D30000197D9F71092B0005B9880E49CE9019785
:100D4000F1F7C8ECD0E000E41CE986E80E94BC049E
:100D50008CE494E0FE013197F1F70197D9F71092F6
:100D6000B0005B9884EE9CE0FE013197F1F70197AB
:100D7000D9F783EB0E94BC0488EC99E1FE0131971E
:100D8000F1F70197D9F786E80E94BC0480ED97E05F
:100D9000FE013197F1F70197D9F71092B0005B98F7
:100DA000C8010197F1F786E80E94BC048CE494E046
:100DB000FE013197F1F70197D9F787E70E94BC044C
:100DC0008CE494E0FE013197F1F70197D9F78AE6B8
:100DD0000E94BC048CE494E0FE013197F1F7019786
:100DE000D9F784E60E94BC048CE494E0FE013197BC
:100DF000F1F70197D9F789E50E94BC0488E991E2EF
:100E0000FE013197F1F70197D9F71092B0005B9886
:100E1000C8010197F1F789E50E94BC0480ED97E0D5
:100E2000FE013197F1F70197D9F71092B0005B9866
:100E3000C8010197F1F789E50E94BC0480ED97E0B5
:100E4000FE013197F1F70197D9F71092B0005B9846
:100E5000C8010197F1F789E50E94BC0484EB95E095
:100E6000FE013197F1F70197D9F784E50E94BC04A0
:100E700084EB95E0FE013197F1F70197D9F78BE408
:100E80000E94BC0484EB95E0FE013197F1F70197D5
:100E9000D9F783E40E94BC0480E39AE2FE01319713
:100EA000F1F70197D9F71092B0005B98C80101974C
:100EB000F1F783E40E94BC0480ED97E0FE013197D6
:100EC000F1F70197D9F71092B0005B98C80101972C
:100ED000F1F783E40E94BC0484EB95E0FE013197B6
:100EE000F1F70197D9F78BE40E94BC0484EB95E0FD
:100EF000FE013197F1F70197D9F784E50E94BC0410
:100F000084EB95E0FE013197F1F70197D9F78BE477
:100F10000E94BC0484EE9CE0FE013197F1F701973A
:100F2000D9F784E50E94BC048CE494E0FE0131977B
:100F3000F1F70197D9F789E50E94BC0488EC99E1A3
:100F4000FE013197F1F70197D9F71092B0005B9845
:100F500088E998E0FE013197F1F70197D9F789E523
:100F60000E94BC0480E391E1FE013197F1F7019703
:100F7000D9F784E60E94BC048CE494E0FE0131972A
:100F8000F1F70197D9F71092B0005B988CE494E0E8
:100F9000FE013197F1F70197D9F784E60E94BC046E
:100FA0008CE494E0FE013197F1F70197D9F789E5D8
:100FB0000E94BC048CE494E0FE013197F1F70197A4
:100FC000D9F784E50E94BC0480E692E2FE013197E5
:100FD000F1F70197D9F789E50E94BC0488E998E008
:100FE000FE013197F1F70197D9F784E60E94BC041E
:100FF00088E998E0FE013197F1F70197D9F781E789
:101000000E94BC048CE494E0FE013197F1F7019753
:10101000D9F71092B0005B988CE494E0FE01319710
:10102000F1F70197D9F781E70E94BC048CE494E0C2
:10103000FE013197F1F70197D9F784E60E94BC04CD
:101040008CE494E0FE013197F1F70197D9F789E537
:101050000E94BC0480E692E2FE013197F1F701970D
:10106000D9F784E60E94BC0488E998E0FE01319734
:10107000F1F70197D9F781E70E94BC0488E998E06D
:10108000FE013197F1F70197D9F787E70E94BC0479
:101090008CE494E0FE013197F1F70197D9F71092B3
:1010A000B0005B988CE494E0FE013197F1F7019772
:1010B000D9F787E70E94BC048CE494E0FE013197E5
:1010C000F1F70197D9F78AE60E94BC048CE494E01A
:1010D000FE013197F1F70197D9F78FE50E94BC0423
:1010E00080E692E2FE013197F1F70197D9F780E5AA
:1010F0000E94BC0480E391E1FE013197F1F7019772
:10110000D9F789E50E94BC0488E998E0FE0131978F
:10111000F1F70197D9F783EB0E94BC0484E893E0D0
:10112000FE013197F1F70197D9F71092B0005B9863
:10113000C8010197F1F783EB0E94BC0484E893E0B7
:10114000FE013197F1F70197D9F71092B0005B9843
:10115000C8010197F1F783EB0E94BC0480ED97E092
:10116000FE013197F1F70197D9F71092B0005B9823
:10117000C8010197F1F783EB0E94BC0484E893E077
:10118000FE013197F1F70197D9F71092B0005B9803
:10119000C8010197F1F783EB0E94BC0484E893E057
:1011A000FE013197F1F70197D9F71092B0005B98E3
:1011B000C8010197F1F783EB0E94BC0480ED97E032
:1011C000FE013197F1F70197D9F71092B0005B98C3
:1011D000C8010197F1F783EB0E94BC0484E893E017
:1011E000FE013197F1F70197D9F71092B0005B98A3
:1011F000C8010197F1F783EB0E94BC0484E893E0F7
:10120000FE013197F1F70197D9F71092B0005B9882
:10121000C8010197F1F783EB0E94BC0480ED97E0D1
:10122000FE013197F1F70197D9F71092B0005B9862
:10123000C8010197F1F783EB0E94BC0480ED97E0B1
:10124000FE013197F1F70197D9F71092B0005B9842
:10125000C8010197F1F786E80E94BC048CE494E091
:10126000FE013197F1F70197D9F71092B0005B9822
:1012700084EE9CE0FE013197F1F70197D9F783EBFB
:101280000E94BC0488EC99E1FE013197F1F70197C7
:10129000D9F786E80E94BC0480ED97E0FE01319703
:1012A000F1F70197D9F71092B0005B98C801019748
:1012B000F1F786E80E94BC048CE494E0FE013197CB
:1012C000F1F70197D9F787E70E94BC048CE494E01A
:1012D000FE013197F1F70197D9F78AE60E94BC0425
:1012E0008CE494E0FE013197F1F70197D9F784E699
:1012F0000E94BC048CE494E0FE013197F1F7019761
:10130000D9F789E50E94BC0488E991E2FE01319792
:10131000F1F70197D9F71092B0005B98C8010197D7
:10132000F1F789E50E94BC0480ED97E0FE0131975A
:10133000F1F70197D9F71092B0005B98C8010197B7
:10134000F1F789E50E94BC0480ED97E0FE0131973A
:10135000F1F70197D9F71092B0005B98C801019797
:10136000F1F789E50E94BC0484EB95E0FE0131971A
:10137000F1F70197D9F784E50E94BC0484EB95E06E
:10138000FE013197F1F70197D9F78BE40E94BC0475
:1013900084EB95E0FE013197F1F70197D9F783E4EB
:1013A0000E94BC0480E993E3FE013197F1F70197B5
:1013B000D9F788E30E94BC0480E391E1FE013197F4
:1013C000F1F70197D9F78CE30E94BC048CE494E018
:1013D000FE013197F1F70197D9F71092B0005B98B1
:1013E00084EE9CE0FE013197F1F70197D9F787E48D
:1013F0000E94BC0480E692E2FE013197F1F701976A
:10140000D9F789E50E94BC0480E391E1FE013197A0
:10141000F1F70197D9F784E50E94BC0480E993E3D2
:10142000FE013197F1F70197D9F783E40E94BC04DC
:1014300080E391E1FE013197F1F70197D9F787E455
:101440000E94BC048CE494E0FE013197F1F701970F
:10145000D9F71092B0005B9884EE9CE0FE013197C2
:10146000F1F70197D9F789E50E94BC0488E991E278
:10147000FE013197F1F70197D9F71092B0005B9810
:10148000C8010197F1F789E50E94BC0480E391E16E
:10149000FE013197F1F70197D9F784E50E94BC046A
:1014A00080E993E3FE013197F1F70197D9F783E4DF
:1014B0000E94BC0480E391E1FE013197F1F70197AE
:1014C000D9F787E40E94BC048CE494E0FE013197D4
:1014D000F1F70197D9F71092B0005B9884EE9CE089
:1014E000FE013197F1F70197D9F789E50E94BC0415
:1014F00080E692E2FE013197F1F70197D9F78AE68B
:101500000E94BC0480E391E1FE013197F1F701975D
:10151000D9F784E60E94BC0480E993E3FE01319789
:10152000F1F70197D9F784E50E94BC0480E391E1CB
:10153000FE013197F1F70197D9F789E50E94BC04C4
:101540008CE494E0FE013197F1F70197D9F71092FE
:10155000B0005B9884EE9CE0FE013197F1F70197B3
:10156000D9F781E70E94BC0480E692E2FE01319740
:10157000F1F70197D9F786E80E94BC0480E391E176
:10158000FE013197F1F70197D9F787E70E94BC0474
:101590008CE494E0FE013197F1F70197D9F71092AE
:1015A000B0005B988CE494E0FE013197F1F701976D
:1015B000D9F787E70E94BC048CE494E0FE013197E0
:1015C000F1F70197D9F78AE60E94BC048CE494E015
:1015D000FE013197F1F70197D9F78FE50E94BC041E
:1015E00080E692E2FE013197F1F70197D9F780E5A5
:1015F0000E94BC0480E391E1FE013197F1F701976D
:10160000D9F789E50E94BC0488E998E0FE0131978A
:10161000F1F70197D9F783EB0E94BC0484E893E0CB
:10162000FE013197F1F70197D9F71092B0005B985E
:10163000C8010197F1F783EB0E94BC0484E893E0B2
:10164000FE013197F1F70197D9F71092B0005B983E
:10165000C8010197F1F783EB0E94BC0480ED97E08D
:10166000FE013197F1F70197D9F71092B0005B981E
:10167000C8010197F1F783EB0E94BC0484E893E072
:10168000FE013197F1F70197D9F71092B0005B98FE
:10169000C8010197F1F783EB0E94BC0484E893E052
:1016A000FE013197F1F70197D9F71092B0005B98DE
:1016B000C8010197F1F783EB0E94BC0480ED97E02D
:1016C000FE013197F1F70197D9F71092B0005B98BE
:1016D000C8010197F1F783EB0E94BC0484E893E012
:1016E000FE013197F1F70197D9F71092B0005B989E
:1016F000C8010197F1F783EB0E94BC0484E893E0F2
:10170000FE013197F1F70197D9F71092B0005B987D
:10171000C8010197F1F783EB0E94BC0480ED97E0CC
:10172000FE013197F1F70197D9F71092B0005B985D
:10173000C8010197F1F783EB0E94BC0480ED97E0AC
:10174000FE013197F1F70197D9F71092B0005B983D
:10175000C8010197F1F7F9CA83E08093C4001092A1
:10176000C50086E08093C20088E08093C1000895A0
:101770009C01662361F188E980931E0110921F018C
:10178000109220011092210185E0809322019FEFA9
:101790009093230189E080932401909325018DE0AB
:1017A000809326019093270180E1809328019AEA93
:1017B0009093290184E180932A0190932B01109248
:1017C0001C018EE080931D0190911C0127C088E1CF
:1017D00080931E01442319F088E380931E01109228
:1017E0001F01D901E0E2F1E09C9111968C911197D3
:1017F0008370808391831296329681E0EC32F807F1
:1018000099F7DDCF8091C00085FFFCCFE92FF0E094
:10181000E25EFE4F80818093C6009F5F9E3090F312
:1018200090931C010895806480937C0085E38A95E1
:10183000F1F780917A00806480937A0080917A0039
:1018400086FDFCCF2091780030917900C901089580
:10185000EF92FF920F931F937C01FC010081118195
:1018600087E00E94130C080F191FF70111830083F2
:101870000681178183E00E94130C080F191FF701DE
:10188000178306830481158184E00E94130C080FDE
:10189000191FF701158304830281138185E00E94DB
:1018A000130C080F191FF701138302831F910F9167
:1018B000FF90EF900895DF93CF93CDB7DEB72897D1
:1018C0000FB6F894DEBF0FBECDBFAA2797FDA09537
:1018D000BA2F89839A83AB83BC8369817A818B8198
:1018E0009C812EE036E040E050E00E94460D6D8382
:1018F0007E838F8398876D817E818F81988528EE86
:1019000033E040E050E00E94840DC901DA01898390
:101910009A83AB83BC8329813A814B815C81C90165
:1019200028960FB6F894DEBF0FBECDBFCF91DF91E2
:10193000089524E08030920714F08FEF93E09C012B
:1019400097FF02C020E030E0C90108950F931F9374
:10195000CF93DF938C01CBE5D1E0F80180819181B9
:101960006BE070E00E94710DCB010E945B0C805017
:101970009E4FF8019183808328813981821B930BCC
:10198000F4E080309F0714F08FEF93E097FF02C0E0
:1019900080E090E0F801819391938F012296F1E02D
:1019A000C336DF07D1F6DF91CF911F910F910895D4
:1019B0001F93CF93DF930E9496040E94530020E070
:1019C00048EC50E0329A88EB9BE0FA013197F1F74E
:1019D0000197D9F7233011F4409807C0263011F44D
:1019E000419803C0293009F458982F5F2A3051F7E5
:1019F0000E94530010925C0110925B0110925E01F4
:101A000010925D011092600110925F0110926201CC
:101A10001092610110E0C0EADFE0CE010197F1F71A
:101A20008BE591E00E94280C1F5F1B30B1F7CBE5DE
:101A3000D1E0888199816BE070E00E94710DCB014B
:101A40000E945B0C8993999381E0C336D80789F78C
:101A5000CE01089760E070E048E050E00E94E50D9C
:101A6000DF91CF911F9108958BE591E060E070E0E8
:101A700048E050E00E94D50D80915B0190915C019F
:101A80000196029710F40E94D80C0895629FD0012D
:101A9000739FF001829FE00DF11D649FE00DF11D29
:101AA000929FF00D839FF00D749FF00D659FF00DD8
:101AB0009927729FB00DE11DF91F639FB00DE11DC5
:101AC000F91FBD01CF0111240895991B79E004C0CD
:101AD000991F961708F0961B881F7A95C9F780956D
:101AE000089597FB092E07260AD077FD04D027D04A
:101AF00006D000201AF4709561957F4F0895F6F78F
:101B0000909581959F4F089597FB092E05260ED03D
:101B100057FD04D028D00AD0001C38F450954095C9
:101B2000309521953F4F4F4F5F4F0895F6F79095B1
:101B30008095709561957F4F8F4F9F4F0895AA1B99
:101B4000BB1B51E107C0AA1FBB1FA617B70710F0A8
:101B5000A61BB70B881F991F5A95A9F780959095DA
:101B6000BC01CD010895A1E21A2EAA1BBB1BFD01E9
:101B70000DC0AA1FBB1FEE1FFF1FA217B307E4076C
:101B8000F50720F0A21BB30BE40BF50B661F771FC4
:101B9000881F991F1A9469F76095709580959095A4
:101BA0009B01AC01BD01CF010895DC01CB01FC011B
:101BB000F999FECF06C0F2BDE1BDF89A319600B4A6
:101BC0000D9241505040B8F70895DC01A40FB51FA5
:101BD0004150504048F0CB01840F951F2E910E9438
:101BE000F60D41505040D0F70895262FF999FECFB9
:101BF00092BD81BDF89A019700B4021639F01FBA60
:101C000020BD0FB6F894FA9AF99A0FBE0895F89489
:021C1000FFCF04
:0E1C120001030303030303030303FFFFFFFFAC
:00000001FF
